{
  "_format": "hh-sol-artifact-1",
  "contractName": "UseSwap",
  "sourceName": "contracts/UseSwap.sol",
  "abi": [
    {
      "inputs": [
        {
          "internalType": "address",
          "name": "_uniswapRouter",
          "type": "address"
        }
      ],
      "stateMutability": "nonpayable",
      "type": "constructor"
    },
    {
      "inputs": [
        {
          "internalType": "address",
          "name": "tokenA",
          "type": "address"
        },
        {
          "internalType": "address",
          "name": "tokenB",
          "type": "address"
        },
        {
          "internalType": "uint256",
          "name": "amountADesired",
          "type": "uint256"
        },
        {
          "internalType": "uint256",
          "name": "amountBDesired",
          "type": "uint256"
        },
        {
          "internalType": "uint256",
          "name": "amountAMin",
          "type": "uint256"
        },
        {
          "internalType": "uint256",
          "name": "amountBMin",
          "type": "uint256"
        },
        {
          "internalType": "address",
          "name": "to",
          "type": "address"
        },
        {
          "internalType": "uint256",
          "name": "deadline",
          "type": "uint256"
        }
      ],
      "name": "handleAddLiquidity",
      "outputs": [],
      "stateMutability": "nonpayable",
      "type": "function"
    },
    {
      "inputs": [
        {
          "internalType": "uint256",
          "name": "amountOut",
          "type": "uint256"
        },
        {
          "internalType": "uint256",
          "name": "amountInMax",
          "type": "uint256"
        },
        {
          "internalType": "address[]",
          "name": "path",
          "type": "address[]"
        },
        {
          "internalType": "address",
          "name": "to",
          "type": "address"
        },
        {
          "internalType": "uint256",
          "name": "deadline",
          "type": "uint256"
        }
      ],
      "name": "handleSwap",
      "outputs": [],
      "stateMutability": "nonpayable",
      "type": "function"
    },
    {
      "inputs": [
        {
          "internalType": "uint256",
          "name": "amountIn",
          "type": "uint256"
        },
        {
          "internalType": "uint256",
          "name": "amountOutMin",
          "type": "uint256"
        },
        {
          "internalType": "address[]",
          "name": "path",
          "type": "address[]"
        },
        {
          "internalType": "address",
          "name": "to",
          "type": "address"
        },
        {
          "internalType": "uint256",
          "name": "deadline",
          "type": "uint256"
        }
      ],
      "name": "handleSwapToken",
      "outputs": [],
      "stateMutability": "nonpayable",
      "type": "function"
    },
    {
      "inputs": [],
      "name": "liquidityCount",
      "outputs": [
        {
          "internalType": "uint256",
          "name": "",
          "type": "uint256"
        }
      ],
      "stateMutability": "view",
      "type": "function"
    },
    {
      "inputs": [],
      "name": "owner",
      "outputs": [
        {
          "internalType": "address",
          "name": "",
          "type": "address"
        }
      ],
      "stateMutability": "view",
      "type": "function"
    },
    {
      "inputs": [],
      "name": "swapCount",
      "outputs": [
        {
          "internalType": "uint256",
          "name": "",
          "type": "uint256"
        }
      ],
      "stateMutability": "view",
      "type": "function"
    },
    {
      "inputs": [],
      "name": "swapCountToken",
      "outputs": [
        {
          "internalType": "uint256",
          "name": "",
          "type": "uint256"
        }
      ],
      "stateMutability": "view",
      "type": "function"
    },
    {
      "inputs": [],
      "name": "uniswapRouter",
      "outputs": [
        {
          "internalType": "address",
          "name": "",
          "type": "address"
        }
      ],
      "stateMutability": "view",
      "type": "function"
    }
  ],
  "bytecode": "0x60806040523480156200001157600080fd5b506040516200144838038062001448833981810160405281019062000037919062000129565b806000806101000a81548173ffffffffffffffffffffffffffffffffffffffff021916908373ffffffffffffffffffffffffffffffffffffffff16021790555033600160006101000a81548173ffffffffffffffffffffffffffffffffffffffff021916908373ffffffffffffffffffffffffffffffffffffffff160217905550506200015b565b600080fd5b600073ffffffffffffffffffffffffffffffffffffffff82169050919050565b6000620000f182620000c4565b9050919050565b6200010381620000e4565b81146200010f57600080fd5b50565b6000815190506200012381620000f8565b92915050565b600060208284031215620001425762000141620000bf565b5b6000620001528482850162000112565b91505092915050565b6112dd806200016b6000396000f3fe608060405234801561001057600080fd5b50600436106100885760003560e01c80638da5cb5b1161005b5780638da5cb5b14610101578063a54074a51461011f578063af0bebf51461013b578063c590f2b11461015957610088565b806310e4584d1461008d5780632eff0d9e146100a95780636873f480146100c7578063735de9f7146100e3575b600080fd5b6100a760048036038101906100a29190610b65565b610177565b005b6100b16103f3565b6040516100be9190610c0e565b60405180910390f35b6100e160048036038101906100dc9190610c29565b6103f9565b005b6100eb610786565b6040516100f89190610cee565b60405180910390f35b6101096107aa565b6040516101169190610cee565b60405180910390f35b61013960048036038101906101349190610b65565b6107d0565b005b610143610a4c565b6040516101509190610c0e565b60405180910390f35b610161610a52565b60405161016e9190610c0e565b60405180910390f35b8383600081811061018b5761018a610d09565b5b90506020020160208101906101a09190610d38565b73ffffffffffffffffffffffffffffffffffffffff166323b872dd3330886040518463ffffffff1660e01b81526004016101dc93929190610d65565b6020604051808303816000875af11580156101fb573d6000803e3d6000fd5b505050506040513d601f19601f8201168201806040525081019061021f9190610dd4565b508383600081811061023457610233610d09565b5b90506020020160208101906102499190610d38565b73ffffffffffffffffffffffffffffffffffffffff1663095ea7b360008054906101000a900473ffffffffffffffffffffffffffffffffffffffff16876040518363ffffffff1660e01b81526004016102a3929190610e01565b6020604051808303816000875af11580156102c2573d6000803e3d6000fd5b505050506040513d601f19601f820116820180604052508101906102e69190610dd4565b610325576040517f08c379a000000000000000000000000000000000000000000000000000000000815260040161031c90610e87565b60405180910390fd5b60008054906101000a900473ffffffffffffffffffffffffffffffffffffffff1673ffffffffffffffffffffffffffffffffffffffff16638803dbee8787878787876040518763ffffffff1660e01b815260040161038896959493929190610f6a565b6000604051808303816000875af11580156103a7573d6000803e3d6000fd5b505050506040513d6000823e3d601f19601f820116820180604052508101906103d0919061112a565b506001600260008282546103e491906111a2565b92505081905550505050505050565b60025481565b8773ffffffffffffffffffffffffffffffffffffffff166323b872dd3330896040518463ffffffff1660e01b815260040161043693929190610d65565b6020604051808303816000875af1158015610455573d6000803e3d6000fd5b505050506040513d601f19601f820116820180604052508101906104799190610dd4565b508673ffffffffffffffffffffffffffffffffffffffff166323b872dd3330886040518463ffffffff1660e01b81526004016104b793929190610d65565b6020604051808303816000875af11580156104d6573d6000803e3d6000fd5b505050506040513d601f19601f820116820180604052508101906104fa9190610dd4565b508773ffffffffffffffffffffffffffffffffffffffff1663095ea7b360008054906101000a900473ffffffffffffffffffffffffffffffffffffffff16886040518363ffffffff1660e01b8152600401610556929190610e01565b6020604051808303816000875af1158015610575573d6000803e3d6000fd5b505050506040513d601f19601f820116820180604052508101906105999190610dd4565b6105d8576040517f08c379a00000000000000000000000000000000000000000000000000000000081526004016105cf90610e87565b60405180910390fd5b8673ffffffffffffffffffffffffffffffffffffffff1663095ea7b360008054906101000a900473ffffffffffffffffffffffffffffffffffffffff16876040518363ffffffff1660e01b8152600401610633929190610e01565b6020604051808303816000875af1158015610652573d6000803e3d6000fd5b505050506040513d601f19601f820116820180604052508101906106769190610dd4565b6106b5576040517f08c379a00000000000000000000000000000000000000000000000000000000081526004016106ac90610e87565b60405180910390fd5b60008054906101000a900473ffffffffffffffffffffffffffffffffffffffff1673ffffffffffffffffffffffffffffffffffffffff1663e8e3370089898989898989896040518963ffffffff1660e01b815260040161071c9897969594939291906111d6565b6060604051808303816000875af115801561073b573d6000803e3d6000fd5b505050506040513d601f19601f8201168201806040525081019061075f9190611254565b50505060016004600082825461077591906111a2565b925050819055505050505050505050565b60008054906101000a900473ffffffffffffffffffffffffffffffffffffffff1681565b600160009054906101000a900473ffffffffffffffffffffffffffffffffffffffff1681565b838360008181106107e4576107e3610d09565b5b90506020020160208101906107f99190610d38565b73ffffffffffffffffffffffffffffffffffffffff166323b872dd3330896040518463ffffffff1660e01b815260040161083593929190610d65565b6020604051808303816000875af1158015610854573d6000803e3d6000fd5b505050506040513d601f19601f820116820180604052508101906108789190610dd4565b508383600081811061088d5761088c610d09565b5b90506020020160208101906108a29190610d38565b73ffffffffffffffffffffffffffffffffffffffff1663095ea7b360008054906101000a900473ffffffffffffffffffffffffffffffffffffffff16876040518363ffffffff1660e01b81526004016108fc929190610e01565b6020604051808303816000875af115801561091b573d6000803e3d6000fd5b505050506040513d601f19601f8201168201806040525081019061093f9190610dd4565b61097e576040517f08c379a000000000000000000000000000000000000000000000000000000000815260040161097590610e87565b60405180910390fd5b60008054906101000a900473ffffffffffffffffffffffffffffffffffffffff1673ffffffffffffffffffffffffffffffffffffffff166338ed17398787878787876040518763ffffffff1660e01b81526004016109e196959493929190610f6a565b6000604051808303816000875af1158015610a00573d6000803e3d6000fd5b505050506040513d6000823e3d601f19601f82011682018060405250810190610a29919061112a565b50600160036000828254610a3d91906111a2565b92505081905550505050505050565b60035481565b60045481565b6000604051905090565b600080fd5b600080fd5b6000819050919050565b610a7f81610a6c565b8114610a8a57600080fd5b50565b600081359050610a9c81610a76565b92915050565b600080fd5b600080fd5b600080fd5b60008083601f840112610ac757610ac6610aa2565b5b8235905067ffffffffffffffff811115610ae457610ae3610aa7565b5b602083019150836020820283011115610b0057610aff610aac565b5b9250929050565b600073ffffffffffffffffffffffffffffffffffffffff82169050919050565b6000610b3282610b07565b9050919050565b610b4281610b27565b8114610b4d57600080fd5b50565b600081359050610b5f81610b39565b92915050565b60008060008060008060a08789031215610b8257610b81610a62565b5b6000610b9089828a01610a8d565b9650506020610ba189828a01610a8d565b955050604087013567ffffffffffffffff811115610bc257610bc1610a67565b5b610bce89828a01610ab1565b94509450506060610be189828a01610b50565b9250506080610bf289828a01610a8d565b9150509295509295509295565b610c0881610a6c565b82525050565b6000602082019050610c236000830184610bff565b92915050565b600080600080600080600080610100898b031215610c4a57610c49610a62565b5b6000610c588b828c01610b50565b9850506020610c698b828c01610b50565b9750506040610c7a8b828c01610a8d565b9650506060610c8b8b828c01610a8d565b9550506080610c9c8b828c01610a8d565b94505060a0610cad8b828c01610a8d565b93505060c0610cbe8b828c01610b50565b92505060e0610ccf8b828c01610a8d565b9150509295985092959890939650565b610ce881610b27565b82525050565b6000602082019050610d036000830184610cdf565b92915050565b7f4e487b7100000000000000000000000000000000000000000000000000000000600052603260045260246000fd5b600060208284031215610d4e57610d4d610a62565b5b6000610d5c84828501610b50565b91505092915050565b6000606082019050610d7a6000830186610cdf565b610d876020830185610cdf565b610d946040830184610bff565b949350505050565b60008115159050919050565b610db181610d9c565b8114610dbc57600080fd5b50565b600081519050610dce81610da8565b92915050565b600060208284031215610dea57610de9610a62565b5b6000610df884828501610dbf565b91505092915050565b6000604082019050610e166000830185610cdf565b610e236020830184610bff565b9392505050565b600082825260208201905092915050565b7f617070726f7665206661696c65642e0000000000000000000000000000000000600082015250565b6000610e71600f83610e2a565b9150610e7c82610e3b565b602082019050919050565b60006020820190508181036000830152610ea081610e64565b9050919050565b600082825260208201905092915050565b6000819050919050565b610ecb81610b27565b82525050565b6000610edd8383610ec2565b60208301905092915050565b6000610ef86020840184610b50565b905092915050565b6000602082019050919050565b6000610f198385610ea7565b9350610f2482610eb8565b8060005b85811015610f5d57610f3a8284610ee9565b610f448882610ed1565b9750610f4f83610f00565b925050600181019050610f28565b5085925050509392505050565b600060a082019050610f7f6000830189610bff565b610f8c6020830188610bff565b8181036040830152610f9f818688610f0d565b9050610fae6060830185610cdf565b610fbb6080830184610bff565b979650505050505050565b6000601f19601f8301169050919050565b7f4e487b7100000000000000000000000000000000000000000000000000000000600052604160045260246000fd5b61100f82610fc6565b810181811067ffffffffffffffff8211171561102e5761102d610fd7565b5b80604052505050565b6000611041610a58565b905061104d8282611006565b919050565b600067ffffffffffffffff82111561106d5761106c610fd7565b5b602082029050602081019050919050565b60008151905061108d81610a76565b92915050565b60006110a66110a184611052565b611037565b905080838252602082019050602084028301858111156110c9576110c8610aac565b5b835b818110156110f257806110de888261107e565b8452602084019350506020810190506110cb565b5050509392505050565b600082601f83011261111157611110610aa2565b5b8151611121848260208601611093565b91505092915050565b6000602082840312156111405761113f610a62565b5b600082015167ffffffffffffffff81111561115e5761115d610a67565b5b61116a848285016110fc565b91505092915050565b7f4e487b7100000000000000000000000000000000000000000000000000000000600052601160045260246000fd5b60006111ad82610a6c565b91506111b883610a6c565b92508282019050808211156111d0576111cf611173565b5b92915050565b6000610100820190506111ec600083018b610cdf565b6111f9602083018a610cdf565b6112066040830189610bff565b6112136060830188610bff565b6112206080830187610bff565b61122d60a0830186610bff565b61123a60c0830185610cdf565b61124760e0830184610bff565b9998505050505050505050565b60008060006060848603121561126d5761126c610a62565b5b600061127b8682870161107e565b935050602061128c8682870161107e565b925050604061129d8682870161107e565b915050925092509256fea2646970667358221220501143c6291d48db750190ccad1813df5b7a3e7af29a8e1c4e14c31934f6fbdd64736f6c63430008180033",
  "linkReferences": {},
  "deployedLinkReferences": {}
}